{
  "_format": "hh-sol-artifact-1",
  "contractName": "PoolDeployer",
  "sourceName": "contracts/support/PoolDeployer.sol",
  "abi": [
    {
      "inputs": [
        {
          "internalType": "address",
          "name": "weth",
          "type": "address"
        },
        {
          "internalType": "address",
          "name": "logic",
          "type": "address"
        }
      ],
      "stateMutability": "nonpayable",
      "type": "constructor"
    },
    {
      "inputs": [],
      "name": "LOGIC",
      "outputs": [
        {
          "internalType": "address",
          "name": "",
          "type": "address"
        }
      ],
      "stateMutability": "view",
      "type": "function"
    },
    {
      "inputs": [
        {
          "components": [
            {
              "internalType": "address",
              "name": "FETCHER",
              "type": "address"
            },
            {
              "internalType": "bytes32",
              "name": "ORACLE",
              "type": "bytes32"
            },
            {
              "internalType": "address",
              "name": "TOKEN_R",
              "type": "address"
            },
            {
              "internalType": "uint256",
              "name": "K",
              "type": "uint256"
            },
            {
              "internalType": "uint256",
              "name": "MARK",
              "type": "uint256"
            },
            {
              "internalType": "uint256",
              "name": "INTEREST_HL",
              "type": "uint256"
            },
            {
              "internalType": "uint256",
              "name": "PREMIUM_HL",
              "type": "uint256"
            },
            {
              "internalType": "uint256",
              "name": "MATURITY",
              "type": "uint256"
            },
            {
              "internalType": "uint256",
              "name": "MATURITY_VEST",
              "type": "uint256"
            },
            {
              "internalType": "uint256",
              "name": "MATURITY_RATE",
              "type": "uint256"
            },
            {
              "internalType": "uint256",
              "name": "OPEN_RATE",
              "type": "uint256"
            }
          ],
          "internalType": "struct Config",
          "name": "config",
          "type": "tuple"
        }
      ],
      "name": "create",
      "outputs": [
        {
          "internalType": "address",
          "name": "pool",
          "type": "address"
        }
      ],
      "stateMutability": "nonpayable",
      "type": "function"
    },
    {
      "inputs": [
        {
          "components": [
            {
              "internalType": "address",
              "name": "FETCHER",
              "type": "address"
            },
            {
              "internalType": "bytes32",
              "name": "ORACLE",
              "type": "bytes32"
            },
            {
              "internalType": "address",
              "name": "TOKEN_R",
              "type": "address"
            },
            {
              "internalType": "uint256",
              "name": "K",
              "type": "uint256"
            },
            {
              "internalType": "uint256",
              "name": "MARK",
              "type": "uint256"
            },
            {
              "internalType": "uint256",
              "name": "INTEREST_HL",
              "type": "uint256"
            },
            {
              "internalType": "uint256",
              "name": "PREMIUM_HL",
              "type": "uint256"
            },
            {
              "internalType": "uint256",
              "name": "MATURITY",
              "type": "uint256"
            },
            {
              "internalType": "uint256",
              "name": "MATURITY_VEST",
              "type": "uint256"
            },
            {
              "internalType": "uint256",
              "name": "MATURITY_RATE",
              "type": "uint256"
            },
            {
              "internalType": "uint256",
              "name": "OPEN_RATE",
              "type": "uint256"
            }
          ],
          "internalType": "struct Config",
          "name": "config",
          "type": "tuple"
        },
        {
          "components": [
            {
              "internalType": "uint256",
              "name": "R",
              "type": "uint256"
            },
            {
              "internalType": "uint256",
              "name": "a",
              "type": "uint256"
            },
            {
              "internalType": "uint256",
              "name": "b",
              "type": "uint256"
            }
          ],
          "internalType": "struct State",
          "name": "state",
          "type": "tuple"
        },
        {
          "components": [
            {
              "internalType": "address",
              "name": "utr",
              "type": "address"
            },
            {
              "internalType": "bytes",
              "name": "payer",
              "type": "bytes"
            },
            {
              "internalType": "address",
              "name": "recipient",
              "type": "address"
            }
          ],
          "internalType": "struct Payment",
          "name": "payment",
          "type": "tuple"
        },
        {
          "internalType": "address",
          "name": "baseToken",
          "type": "address"
        },
        {
          "internalType": "bytes32",
          "name": "baseSymbol",
          "type": "bytes32"
        },
        {
          "internalType": "bytes32",
          "name": "topic2",
          "type": "bytes32"
        },
        {
          "internalType": "bytes32",
          "name": "topic3",
          "type": "bytes32"
        }
      ],
      "name": "deploy",
      "outputs": [
        {
          "internalType": "address",
          "name": "pool",
          "type": "address"
        }
      ],
      "stateMutability": "payable",
      "type": "function"
    },
    {
      "inputs": [
        {
          "internalType": "bytes4",
          "name": "interfaceId",
          "type": "bytes4"
        }
      ],
      "name": "supportsInterface",
      "outputs": [
        {
          "internalType": "bool",
          "name": "",
          "type": "bool"
        }
      ],
      "stateMutability": "view",
      "type": "function"
    }
  ],
  "bytecode": "0x60c060405234801561001057600080fd5b50604051610f45380380610f4583398101604081905261002f916100d2565b6001600160a01b0381161580159061004f57506001600160a01b03821615155b61009f5760405162461bcd60e51b815260206004820152601960248201527f506f6f6c466163746f72793a205a45524f5f4144445245535300000000000000604482015260640160405180910390fd5b6001600160a01b0391821660a05216608052610105565b80516001600160a01b03811681146100cd57600080fd5b919050565b600080604083850312156100e557600080fd5b6100ee836100b6565b91506100fc602084016100b6565b90509250929050565b60805160a051610e0061014560003960008181610285015281816102dc0152818161038a015261045b01526000818160d001526101c80152610e006000f3fe60806040526004361061003f5760003560e01c806301ffc9a7146100445780635f421d5a146100795780639f61f4ff146100be578063a35cc2c5146100f2575b600080fd5b34801561005057600080fd5b5061006461005f366004610884565b610105565b60405190151581526020015b60405180910390f35b34801561008557600080fd5b50610099610094366004610a59565b61019e565b60405173ffffffffffffffffffffffffffffffffffffffff9091168152602001610070565b3480156100ca57600080fd5b506100997f000000000000000000000000000000000000000000000000000000000000000081565b610099610100366004610b54565b6101f4565b60007f61206120000000000000000000000000000000000000000000000000000000007fffffffff000000000000000000000000000000000000000000000000000000008316148061019857507f01ffc9a7000000000000000000000000000000000000000000000000000000007fffffffff000000000000000000000000000000000000000000000000000000008316145b92915050565b600080826040516020016101b29190610c31565b60405160208183030381529060405290506101ed7f0000000000000000000000000000000000000000000000000000000000000000826106e1565b9392505050565b60006101ff8861019e565b905073ffffffffffffffffffffffffffffffffffffffff8116610283576040517f08c379a000000000000000000000000000000000000000000000000000000000815260206004820152601c60248201527f506f6f6c4465706c6f7965723a20435245415445325f4641494c45440000000060448201526064015b60405180910390fd5b7f000000000000000000000000000000000000000000000000000000000000000073ffffffffffffffffffffffffffffffffffffffff16886040015173ffffffffffffffffffffffffffffffffffffffff16036104d1577f000000000000000000000000000000000000000000000000000000000000000073ffffffffffffffffffffffffffffffffffffffff1663d0e30db0346040518263ffffffff1660e01b81526004016000604051808303818588803b15801561034257600080fd5b505af1158015610356573d6000803e3d6000fd5b50506040517f70a08231000000000000000000000000000000000000000000000000000000008152306004820152600093507f000000000000000000000000000000000000000000000000000000000000000073ffffffffffffffffffffffffffffffffffffffff1692506370a082319150602401602060405180830381865afa1580156103e8573d6000803e3d6000fd5b505050506040513d601f19601f8201168201806040525081019061040c9190610cde565b6040517f095ea7b300000000000000000000000000000000000000000000000000000000815273ffffffffffffffffffffffffffffffffffffffff8481166004830152602482018390529192507f00000000000000000000000000000000000000000000000000000000000000009091169063095ea7b3906044016020604051808303816000875af11580156104a6573d6000803e3d6000fd5b505050506040513d601f19601f820116820180604052508101906104ca9190610cf7565b5050610539565b3415610539576040517f08c379a000000000000000000000000000000000000000000000000000000000815260206004820152601a60248201527f506f6f6c4465706c6f7965723a20554e555345445f56414c5545000000000000604482015260640161027a565b6040517fdc1a6f3300000000000000000000000000000000000000000000000000000000815273ffffffffffffffffffffffffffffffffffffffff82169063dc1a6f339061058d908a908a90600401610d19565b600060405180830381600087803b1580156105a757600080fd5b505af11580156105bb573d6000803e3d6000fd5b5050885160408b81015190517f70a0823100000000000000000000000000000000000000000000000000000000815273ffffffffffffffffffffffffffffffffffffffff8681166004830152929450911691506370a0823190602401602060405180830381865afa158015610634573d6000803e3d6000fd5b505050506040513d601f19601f820116820180604052508101906106589190610cde565b10156106c0576040517f08c379a000000000000000000000000000000000000000000000000000000000815260206004820152601e60248201527f506f6f6c4465706c6f7965723a20504f4f4c5f494e49545f4641494c45440000604482015260640161027a565b6106d6858585856106d18d876106fe565b6107d9565b979650505050505050565b6000806020830190506106f6848285516107eb565b949350505050565b6060826000015183602001518460400151856060015186608001518760a001518860c001518960e001518a61010001518b61012001518c61014001518c6040516020016107c29c9b9a9998979695949392919073ffffffffffffffffffffffffffffffffffffffff9c8d168152602081019b909b52988b1660408b015260608a0197909752608089019590955260a088019390935260c087019190915260e08601526101008501526101208401526101408301529091166101608201526101800190565b604051602081830303815290604052905092915050565b81838587845160208601a45050505050565b6040517f600b380380600b3d393df3363d3d373d3d3d3d60368038038091363936013d738152606084901b60208201527f5af43d3d93803e603457fd5bf300000000000000000000000000000000000000603482015260009060418101825b8481101561086257858101518282015260200161084a565b5083810190508381526020810190506000828203836000f59695505050505050565b60006020828403121561089657600080fd5b81357fffffffff00000000000000000000000000000000000000000000000000000000811681146101ed57600080fd5b7f4e487b7100000000000000000000000000000000000000000000000000000000600052604160045260246000fd5b604051610160810167ffffffffffffffff81118282101715610919576109196108c6565b60405290565b6040516060810167ffffffffffffffff81118282101715610919576109196108c6565b604051601f82017fffffffffffffffffffffffffffffffffffffffffffffffffffffffffffffffe016810167ffffffffffffffff81118282101715610989576109896108c6565b604052919050565b803573ffffffffffffffffffffffffffffffffffffffff811681146109b557600080fd5b919050565b600061016082840312156109cd57600080fd5b6109d56108f5565b90506109e082610991565b8152602082013560208201526109f860408301610991565b6040820152606082013560608201526080820135608082015260a082013560a082015260c082013560c082015260e082013560e082015261010080830135818301525061012080830135818301525061014080830135818301525092915050565b60006101608284031215610a6c57600080fd5b6101ed83836109ba565b600060608284031215610a8857600080fd5b610a9061091f565b9050610a9b82610991565b815260208083013567ffffffffffffffff80821115610ab957600080fd5b818501915085601f830112610acd57600080fd5b813581811115610adf57610adf6108c6565b610b0f847fffffffffffffffffffffffffffffffffffffffffffffffffffffffffffffffe0601f84011601610942565b91508082528684828501011115610b2557600080fd5b808484018584013760009082018401529183019190915250610b4960408301610991565b604082015292915050565b6000806000806000806000878903610260811215610b7157600080fd5b610b7b8a8a6109ba565b975060607ffffffffffffffffffffffffffffffffffffffffffffffffffffffffffffffea082011215610bad57600080fd5b50610bb661091f565b610160890135815261018089013560208201526101a0890135604082015295506101c088013567ffffffffffffffff811115610bf157600080fd5b610bfd8a828b01610a76565b955050610c0d6101e08901610991565b96999598509396610200810135956102208201359550610240909101359350915050565b815173ffffffffffffffffffffffffffffffffffffffff1681526101608101602083015160208301526040830151610c81604084018273ffffffffffffffffffffffffffffffffffffffff169052565b50606083015160608301526080830151608083015260a083015160a083015260c083015160c083015260e083015160e083015261010080840151818401525061012080840151818401525061014080840151818401525092915050565b600060208284031215610cf057600080fd5b5051919050565b600060208284031215610d0957600080fd5b815180151581146101ed57600080fd5b82518152600060208085015181840152604085015160408401526080606084015273ffffffffffffffffffffffffffffffffffffffff845116608084015280840151606060a085015280518060e086015260005b81811015610d8a5782810184015186820161010001528301610d6d565b506101009250600083828701015260408601519150610dc160c086018373ffffffffffffffffffffffffffffffffffffffff169052565b601f017fffffffffffffffffffffffffffffffffffffffffffffffffffffffffffffffe016939093010194935050505056fea164736f6c6343000814000a",
  "linkReferences": {},
  "deployedLinkReferences": {}
}