{
  "_format": "hh-sol-artifact-1",
  "contractName": "PoolFactory",
  "sourceName": "contracts/PoolFactory.sol",
  "abi": [
    {
      "inputs": [
        {
          "internalType": "address",
          "name": "logic",
          "type": "address"
        }
      ],
      "stateMutability": "nonpayable",
      "type": "constructor"
    },
    {
      "anonymous": false,
      "inputs": [
        {
          "indexed": true,
          "internalType": "bytes32",
          "name": "topic1",
          "type": "bytes32"
        },
        {
          "indexed": true,
          "internalType": "bytes32",
          "name": "topic2",
          "type": "bytes32"
        },
        {
          "indexed": true,
          "internalType": "bytes32",
          "name": "topic3",
          "type": "bytes32"
        },
        {
          "indexed": false,
          "internalType": "bytes",
          "name": "data",
          "type": "bytes"
        }
      ],
      "name": "Derivable",
      "type": "event"
    },
    {
      "inputs": [],
      "name": "LOGIC",
      "outputs": [
        {
          "internalType": "address",
          "name": "",
          "type": "address"
        }
      ],
      "stateMutability": "view",
      "type": "function"
    },
    {
      "inputs": [
        {
          "components": [
            {
              "internalType": "address",
              "name": "FETCHER",
              "type": "address"
            },
            {
              "internalType": "bytes32",
              "name": "ORACLE",
              "type": "bytes32"
            },
            {
              "internalType": "address",
              "name": "TOKEN_R",
              "type": "address"
            },
            {
              "internalType": "uint256",
              "name": "K",
              "type": "uint256"
            },
            {
              "internalType": "uint256",
              "name": "MARK",
              "type": "uint256"
            },
            {
              "internalType": "uint256",
              "name": "INTEREST_HL",
              "type": "uint256"
            },
            {
              "internalType": "uint256",
              "name": "PREMIUM_HL",
              "type": "uint256"
            },
            {
              "internalType": "uint256",
              "name": "MATURITY",
              "type": "uint256"
            },
            {
              "internalType": "uint256",
              "name": "MATURITY_VEST",
              "type": "uint256"
            },
            {
              "internalType": "uint256",
              "name": "MATURITY_RATE",
              "type": "uint256"
            },
            {
              "internalType": "uint256",
              "name": "OPEN_RATE",
              "type": "uint256"
            }
          ],
          "internalType": "struct Config",
          "name": "config",
          "type": "tuple"
        }
      ],
      "name": "createPool",
      "outputs": [
        {
          "internalType": "address",
          "name": "pool",
          "type": "address"
        }
      ],
      "stateMutability": "nonpayable",
      "type": "function"
    },
    {
      "inputs": [
        {
          "internalType": "bytes4",
          "name": "interfaceId",
          "type": "bytes4"
        }
      ],
      "name": "supportsInterface",
      "outputs": [
        {
          "internalType": "bool",
          "name": "",
          "type": "bool"
        }
      ],
      "stateMutability": "view",
      "type": "function"
    }
  ],
  "bytecode": "0x60a060405234801561001057600080fd5b5060405161081238038061081283398101604081905261002f9161009a565b6001600160a01b0381166100895760405162461bcd60e51b815260206004820152601960248201527f506f6f6c466163746f72793a205a45524f5f4144445245535300000000000000604482015260640160405180910390fd5b6001600160a01b03166080526100ca565b6000602082840312156100ac57600080fd5b81516001600160a01b03811681146100c357600080fd5b9392505050565b6080516107276100eb6000396000818160ab015261019001526107276000f3fe608060405234801561001057600080fd5b50600436106100415760003560e01c806301ffc9a71461004657806386999c4d1461006e5780639f61f4ff146100a6575b600080fd5b61005961005436600461049d565b6100cd565b60405190151581526020015b60405180910390f35b61008161007c366004610560565b610166565b60405173ffffffffffffffffffffffffffffffffffffffff9091168152602001610065565b6100817f000000000000000000000000000000000000000000000000000000000000000081565b60007f61206120000000000000000000000000000000000000000000000000000000007fffffffff000000000000000000000000000000000000000000000000000000008316148061016057507f01ffc9a7000000000000000000000000000000000000000000000000000000007fffffffff000000000000000000000000000000000000000000000000000000008316145b92915050565b6000808260405160200161017a9190610601565b60405160208183030381529060405290506101b57f0000000000000000000000000000000000000000000000000000000000000000826103e7565b915073ffffffffffffffffffffffffffffffffffffffff8216610238576040517f08c379a000000000000000000000000000000000000000000000000000000000815260206004820152601b60248201527f506f6f6c466163746f72793a20435245415445325f4641494c45440000000000604482015260640160405180910390fd5b826040015173ffffffffffffffffffffffffffffffffffffffff1660001b73ffffffffffffffffffffffffffffffffffffffff80167f80000000000000000000000000000000000000000000000000000000000000001760001b8460200151167f506f6f6c437265617465640000000000000000000000000000000000000000007fe17be4ebc00f711cfd440c6386f98af2b21ea80c4efc6bb5e6008fc122caa63086600001518760200151886060015189608001518a60a001518b60c001518c60e001518d61010001518e61012001518f61014001518f73ffffffffffffffffffffffffffffffffffffffff166040516020016103a19b9a9998979695949392919073ffffffffffffffffffffffffffffffffffffffff9b909b168b5260208b019990995260408a01979097526060890195909552608088019390935260a087019190915260c086015260e08501526101008401526101208301526101408201526101600190565b604080517fffffffffffffffffffffffffffffffffffffffffffffffffffffffffffffffe0818403018152908290526103d9916106ae565b60405180910390a450919050565b6000806020830190506103fc84828551610404565b949350505050565b6040517f600b380380600b3d393df3363d3d373d3d3d3d60368038038091363936013d738152606084901b60208201527f5af43d3d93803e603457fd5bf300000000000000000000000000000000000000603482015260009060418101825b8481101561047b578581015182820152602001610463565b5083810190508381526020810190506000828203836000f59695505050505050565b6000602082840312156104af57600080fd5b81357fffffffff00000000000000000000000000000000000000000000000000000000811681146104df57600080fd5b9392505050565b604051610160810167ffffffffffffffff81118282101715610531577f4e487b7100000000000000000000000000000000000000000000000000000000600052604160045260246000fd5b60405290565b803573ffffffffffffffffffffffffffffffffffffffff8116811461055b57600080fd5b919050565b6000610160828403121561057357600080fd5b61057b6104e6565b61058483610537565b81526020830135602082015261059c60408401610537565b6040820152606083013560608201526080830135608082015260a083013560a082015260c083013560c082015260e083013560e08201526101008084013581830152506101208084013581830152506101408084013581830152508091505092915050565b815173ffffffffffffffffffffffffffffffffffffffff1681526101608101602083015160208301526040830151610651604084018273ffffffffffffffffffffffffffffffffffffffff169052565b50606083015160608301526080830151608083015260a083015160a083015260c083015160c083015260e083015160e083015261010080840151818401525061012080840151818401525061014080840151818401525092915050565b600060208083528351808285015260005b818110156106db578581018301518582016040015282016106bf565b5060006040828601015260407fffffffffffffffffffffffffffffffffffffffffffffffffffffffffffffffe0601f830116850101925050509291505056fea164736f6c6343000814000a",
  "linkReferences": {},
  "deployedLinkReferences": {}
}